S0120000476F5F746F5F676F616C2E7372656318
S11300000C9439000C9466000C947D000C945600FA
S11300100C9456000C9456000C9456000C94560004
S11300200C9456000C9456000C9456000C945600F4
S11300300C9456000C9456000C9456000C945600E4
S11300400C9456000C9456000C9456000C945600D4
S11300500C94560005A84CCDB2D44EB93836A9023A
S11300600C50B9918688083CA6AAAA2ABE000000B2
S1130070803F11241FBECFE5D8E0DEBFCDBF10E026
S1130080A0E6B0E0E8E3F9E002C005900D92A436E2
S1130090B107D9F720E0A4E6B0E001C01D92A8366C
S11300A0B207E1F70E9494000C949A040C940000A7
S11300B085B7886085BF85B7826085BF78948BB724
S11300C080648BBF8BB780688BBF08951F920F929B
S11300D00FB60F9211248F939F9380916400909197
S11300E06500019690936500809364009F918F91C1
S11300F00F900FBE0F901F9018951F920F920FB67E
S11301000F9211248F939F938091660090916700C2
S1130110019690936700809366009F918F910F9052
S11301200FBE0F901F9018952F923F924F925F929F
S11301306F927F928F929F92AF92BF92CF92DF92F3
S1130140EF92FF920F931F93CF93DF93CDB7DEB758
S113015066970FB6F894DEBF0FBECDBF0E9458005D
S11301606091620070916300882777FD8095982FD5
S11301700E94DC026D837E838F8398878090600069
S11301809090610080916400909165009C01220F21
S1130190331F820F931F880F991FEAE0F0E0BF011D
S11301A00E9472049B018091660090916700AC01EB
S11301B0440F551F840F951F880F991FBF010E947C
S11301C07204C12CD12C760126013701A12CB12C4B
S11301D000E010E0212C312CC401AA2797FDA09542
S11301E0BA2F898B9A8BAB8BBC8BC901AA2797FD3D
S11301F0A095BA2F89879A87AB87BC87CB01AA279A
S113020097FDA095BA2F8D879E87AF87B88BBE8A3E
S1130210AD8AA30192016D817E818F8198850E94B0
S1130220D5012DEC3CEC4CE45DE30E943A028823BA
S11302309CF469897A898B899C890E94DC02A701D4
S113024096010E94D5012DEC3CEC4CE45DE30E9448
S11302503A0288230CF48EC069857A858B859C8547
S11302600E94DC024B015C016D857E858F85988937
S11302700E94DC022B013C01AD89BE89BD018827A7
S113028077FD8095982F0E94DC026B017C01A5010B
S11302909401C301B2010E94D50120E030E040E2A4
S11302A051E40E9441029B01AC01C701B6010E94C6
S11302B0D6016B017C010E94A9027E8B6D8BA30188
S11302C09201C501B4010E94D60169837A838B83AC
S11302D09C83C701B6010E943E024B015C01B1013F
S11302E0882777FD8095982F0E94DC022B013C0122
S11302F0A501940169817A818B819C810E94C50347
S113030020E030E040E05FE30E94C5039B01AC01C4
S1130310C301B2010E94D6012B013C010E94A90233
S11303201B01C701B6010E9428046B017C01B801BE
S1130330882777FD8095982F0E94DC024B015C0191
S1130340A701960169817A818B819C810E94C503F2
S113035020E030E040E05FE30E94C5039B01AC0174
S1130360C501B4010E94D6016B017C010E94A9025F
S11303708B014FCF80E090E066960FB6F894DEBF15
S11303800FBECDBFDF91CF911F910F91FF90EF90E2
S1130390DF90CF90BF90AF909F908F907F906F90A1
S11303A05F904F903F902F9008955058BB27AA27F5
S11303B00ED0A0C169D130F06ED120F031F49F3F4E
S11303C011F41EF45EC10EF4E095E7FB54C1E92F6D
S11303D0B3D180F3BA17620773078407950718F03F
S11303E071F49EF5CBC10EF4E0950B2EBA2FA02D1F
S11303F00B01B90190010C01CA01A0011124FF27CE
S1130400591B99F0593F50F4503E68F11A16F040C8
S1130410A22F232F342F4427585FF3CF46953795C7
S11304202795A795F0405395C9F77EF41F16BA0B8C
S1130430620B730B840BBAF09150A1F0FF0FBB1F3A
S1130440661F771F881FC2F70EC0BA0F621F731F83
S1130450841F48F4879577956795B795F7959E3FE0
S113046008F0B3CF9395880F08F09927EE0F97956E
S113047087950895DCD008F481E0089514D1E395BC
S11304804AC10CD037C107D140F0FED030F021F47E
S11304905F3F19F0F0C0511172C1F3C04DD198F310
S11304A09923C9F35523B1F3951B550BBB27AA27F1
S11304B062177307840738F09F5F5F4F220F331F63
S11304C0441FAA1FA9F333D00E2E3AF0E0E830D02F
S11304D091505040E695001CCAF729D0FE2F27D032
S11304E0660F771F881FBB1F261737074807AB0700
S11304F0B0E809F0BB0B802DBF01FF2793585F4F75
S11305002AF09E3F510568F0B6C039C15F3FECF355
S1130510983EDCF3869577956795B795F7959F5F39
S1130520C9F7880F911D9695879597F90895E1E08D
S1130530660F771F881FBB1F621773078407BA07EC
S113054020F0621B730B840BBA0BEE1F88F7E09547
S1130550089504D06894B11112C10895F5D088F0BB
S11305609F5790F0B92F9927B751A0F0D1F0660F9B
S1130570771F881F991F1AF0BA95C9F712C0B130B6
S113058081F0FCD0B1E00895F9C0672F782F882757
S1130590B85F39F0B93FCCF3869577956795B395F5
S11305A0D9F73EF490958095709561957F4F8F4F64
S11305B09F4F0895E89409C097FB3EF49095809569
S11305C0709561957F4F8F4F9F4F9923A9F0F92F15
S11305D096E9BB279395F695879577956795B79593
S11305E0F111F8CFFAF4BB0F11F460FF1BC06F5F79
S11305F07F4F8F4F9F4F16C0882311F096E911C08B
S1130600772321F09EE8872F762F05C0662371F0AB
S113061096E8862F70E060E02AF09A95660F771FBF
S1130620881FDAF7880F9695879597F90895990F9B
S11306300008550FAA0BE0E8FEEF16161706E807A8
S1130640F907C0F012161306E407F50798F0621BC9
S1130650730B840B950B39F40A2661F0232B242B9E
S1130660252B21F408950A2609F4A140A6958FEFBD
S1130670811D811D089597F99F6780E870E060E00F
S113068008959FEF80EC089500240A941616170627
S113069018060906089500240A941216130614066F
S11306A005060895EECF50D0E8F3E894E0E0BB27C8
S11306B09F57F0F02AED3FE049EC06C0EE0FBB0F68
S11306C0661F771F881F28F0B23A620773078407F2
S11306D028F0B25A620B730B840BE3959A9572F768
S11306E0803830F49A95BB0F661F771F881FD2F7A6
S11306F09048B6C0092E0394000C11F4882352F0DC
S1130700BB0F40F4BF2B11F460FF04C06F5F7F4F39
S11307108F4F9F4F0895EF93E0FF06C0A2EA2AEDA2
S11307203FE049EC5FEB53DEE5DF0F90039401FCFF
S11307309058E4E5F0E0A0C057FD9058440F551FD1
S113074059F05F3F71F04795880F97FB991F61F04F
S11307509F3F79F087950895121613061406551FC6
S1130760F2CF4695F1DF08C0161617061806991F32
S1130770F1CF86957105610508940895E894BB2727
S113078066277727CB0197F908950BD0B3CF7CDF89
S113079028F081DF18F0952309F06DCF72CF112472
S11307A0EECFCADFA0F3959FD1F3950F50E0551F0C
S11307B0629FF001729FBB27F00DB11D639FAA27B2
S11307C0F00DB11DAA1F649F6627B00DA11D661F01
S11307D0829F2227B00DA11D621F739FB00DA11D22
S11307E0621F839FA00D611D221F749F3327A00DDC
S11307F0611D231F849F600D211D822F762F6A2F78
S113080011249F5750408AF0E1F088234AF0EE0FFC
S1130810FF1FBB1F661F771F881F91505040A9F709
S11308209E3F510570F027CFAACF5F3FECF3983E6F
S1130830DCF3869577956795B795F795E7959F5F70
S1130840C1F7FE2B880F911D9695879597F908950A
S11308509F9329DF0F9007FCEE5F5DCF9F3F31F040
S1130860915020F4879577956795B795880F911DDA
S11308709695879597F908959F938F937F936F9398
S1130880FF93EF939B01AC0180DFEF91FF9105D0C3
S11308902F913F914F915F9178CFDF93CF931F9327
S11308A00F93FF92EF92DF927B018C01689405C055
S11308B0DA2EEF0176DFFE01E894A59125913591BA
S11308C045915591AEF3EF0182DDFE019701A80138
S11308D0DA9479F7DF90EF90FF900F911F91CF9109
S11308E0DF91089597FB072E16F4009407D077FD47
S11308F009D00E94860407FC05D03EF490958195AA
S11309009F4F0895709561957F4F0895AA1BBB1B57
S113091051E107C0AA1FBB1FA617B70710F0A61BFB
S1130920B70B881F991F5A95A9F780959095BC011C
S10B0930CD010895F894FFCFF6
S107093805000500AD
S9030000FC
